{
  "_format": "hh-sol-artifact-1",
  "contractName": "Lottery",
  "sourceName": "contracts/Lottery.sol",
  "abi": [
    {
      "inputs": [
        {
          "internalType": "uint256",
          "name": "fee",
          "type": "uint256"
        }
      ],
      "stateMutability": "nonpayable",
      "type": "constructor"
    },
    {
      "inputs": [],
      "name": "admin",
      "outputs": [
        {
          "internalType": "address",
          "name": "",
          "type": "address"
        }
      ],
      "stateMutability": "view",
      "type": "function"
    },
    {
      "inputs": [],
      "name": "bet",
      "outputs": [],
      "stateMutability": "payable",
      "type": "function"
    },
    {
      "inputs": [],
      "name": "cancel",
      "outputs": [],
      "stateMutability": "nonpayable",
      "type": "function"
    },
    {
      "inputs": [
        {
          "internalType": "uint256",
          "name": "numPlayers",
          "type": "uint256"
        },
        {
          "internalType": "uint256",
          "name": "betMoney",
          "type": "uint256"
        }
      ],
      "name": "createBet",
      "outputs": [],
      "stateMutability": "nonpayable",
      "type": "function"
    },
    {
      "inputs": [],
      "name": "currentState",
      "outputs": [
        {
          "internalType": "enum Lottery.State",
          "name": "",
          "type": "uint8"
        }
      ],
      "stateMutability": "view",
      "type": "function"
    },
    {
      "inputs": [],
      "name": "houseFee",
      "outputs": [
        {
          "internalType": "uint256",
          "name": "",
          "type": "uint256"
        }
      ],
      "stateMutability": "view",
      "type": "function"
    },
    {
      "inputs": [],
      "name": "maxNumPlayers",
      "outputs": [
        {
          "internalType": "uint256",
          "name": "",
          "type": "uint256"
        }
      ],
      "stateMutability": "view",
      "type": "function"
    },
    {
      "inputs": [],
      "name": "moneyRequiredToBet",
      "outputs": [
        {
          "internalType": "uint256",
          "name": "",
          "type": "uint256"
        }
      ],
      "stateMutability": "view",
      "type": "function"
    },
    {
      "inputs": [
        {
          "internalType": "uint256",
          "name": "",
          "type": "uint256"
        }
      ],
      "name": "players",
      "outputs": [
        {
          "internalType": "address payable",
          "name": "",
          "type": "address"
        }
      ],
      "stateMutability": "view",
      "type": "function"
    }
  ],
  "bytecode": "0x60806040526000600160006101000a81548160ff021916908360018111156200002d576200002c62000107565b5b02179055503480156200003f57600080fd5b506040516200106138038062001061833981810160405281019062000065919062000176565b600181118015620000765750606381105b620000b8576040517f08c379a0000000000000000000000000000000000000000000000000000000008152600401620000af906200022f565b60405180910390fd5b33600560006101000a81548173ffffffffffffffffffffffffffffffffffffffff021916908373ffffffffffffffffffffffffffffffffffffffff160217905550806004819055505062000251565b7f4e487b7100000000000000000000000000000000000000000000000000000000600052602160045260246000fd5b600080fd5b6000819050919050565b62000150816200013b565b81146200015c57600080fd5b50565b600081519050620001708162000145565b92915050565b6000602082840312156200018f576200018e62000136565b5b60006200019f848285016200015f565b91505092915050565b600082825260208201905092915050565b7f6665652073686f756c64206265206265747765656e203145544820616e64203960008201527f3945544800000000000000000000000000000000000000000000000000000000602082015250565b600062000217602483620001a8565b91506200022482620001b9565b604082019050919050565b600060208201905081810360008301526200024a8162000208565b9050919050565b610e0080620002616000396000f3fe6080604052600436106100865760003560e01c80639ae6f132116100595780639ae6f13214610116578063ea8a1af014610141578063f71d96cb14610158578063f851a44014610195578063fff058e6146101c057610086565b80630c3f6acf1461008b5780630ed469b8146100b657806311610c25146100e15780637eb3defb146100eb575b600080fd5b34801561009757600080fd5b506100a06101e9565b6040516100ad91906108d0565b60405180910390f35b3480156100c257600080fd5b506100cb6101fc565b6040516100d89190610904565b60405180910390f35b6100e9610202565b005b3480156100f757600080fd5b50610100610432565b60405161010d9190610904565b60405180910390f35b34801561012257600080fd5b5061012b610438565b6040516101389190610904565b60405180910390f35b34801561014d57600080fd5b5061015661043e565b005b34801561016457600080fd5b5061017f600480360381019061017a9190610950565b61062a565b60405161018c91906109be565b60405180910390f35b3480156101a157600080fd5b506101aa610669565b6040516101b791906109fa565b60405180910390f35b3480156101cc57600080fd5b506101e760048036038101906101e29190610a15565b61068f565b005b600160009054906101000a900460ff1681565b60045481565b60018060009054906101000a900460ff16600181111561022557610224610859565b5b81600181111561023857610237610859565b5b14610278576040517f08c379a000000000000000000000000000000000000000000000000000000000815260040161026f90610ad8565b60405180910390fd5b60035434146102bc576040517f08c379a00000000000000000000000000000000000000000000000000000000081526004016102b390610b44565b60405180910390fd5b6000339080600181540180825580915050600190039060005260206000200160009091909190916101000a81548173ffffffffffffffffffffffffffffffffffffffff021916908373ffffffffffffffffffffffffffffffffffffffff1602179055506002546000805490500361042f57600061033a6002546107d3565b9050600081815481106103505761034f610b64565b5b9060005260206000200160009054906101000a900473ffffffffffffffffffffffffffffffffffffffff1673ffffffffffffffffffffffffffffffffffffffff166108fc606460045460646103a59190610bc2565b6002546003546103b59190610bf6565b6103bf9190610bf6565b6103c99190610c67565b9081150290604051600060405180830381858888f193505050501580156103f4573d6000803e3d6000fd5b506000600160006101000a81548160ff0219169083600181111561041b5761041a610859565b5b021790555060008061042d919061081b565b505b50565b60035481565b60025481565b60018060009054906101000a900460ff16600181111561046157610460610859565b5b81600181111561047457610473610859565b5b146104b4576040517f08c379a00000000000000000000000000000000000000000000000000000000081526004016104ab90610ad8565b60405180910390fd5b600560009054906101000a900473ffffffffffffffffffffffffffffffffffffffff1673ffffffffffffffffffffffffffffffffffffffff163373ffffffffffffffffffffffffffffffffffffffff1614610544576040517f08c379a000000000000000000000000000000000000000000000000000000000815260040161053b90610ce4565b60405180910390fd5b60005b6000805490508110156105ee576000818154811061056857610567610b64565b5b9060005260206000200160009054906101000a900473ffffffffffffffffffffffffffffffffffffffff1673ffffffffffffffffffffffffffffffffffffffff166108fc6003549081150290604051600060405180830381858888f193505050501580156105da573d6000803e3d6000fd5b5080806105e690610d04565b915050610547565b506000806105fc919061081b565b6000600160006101000a81548160ff0219169083600181111561062257610621610859565b5b021790555050565b6000818154811061063a57600080fd5b906000526020600020016000915054906101000a900473ffffffffffffffffffffffffffffffffffffffff1681565b600560009054906101000a900473ffffffffffffffffffffffffffffffffffffffff1681565b6000600160009054906101000a900460ff1660018111156106b3576106b2610859565b5b8160018111156106c6576106c5610859565b5b14610706576040517f08c379a00000000000000000000000000000000000000000000000000000000081526004016106fd90610ad8565b60405180910390fd5b600560009054906101000a900473ffffffffffffffffffffffffffffffffffffffff1673ffffffffffffffffffffffffffffffffffffffff163373ffffffffffffffffffffffffffffffffffffffff1614610796576040517f08c379a000000000000000000000000000000000000000000000000000000000815260040161078d90610ce4565b60405180910390fd5b826002819055508160038190555060018060006101000a81548160ff021916908360018111156107c9576107c8610859565b5b0217905550505050565b60008044426040516020016107e9929190610d6d565b6040516020818303038152906040528051906020012060001c905082816108109190610d99565b905080915050919050565b5080546000825590600052602060002090810190610839919061083c565b50565b5b8082111561085557600081600090555060010161083d565b5090565b7f4e487b7100000000000000000000000000000000000000000000000000000000600052602160045260246000fd5b6002811061089957610898610859565b5b50565b60008190506108aa82610888565b919050565b60006108ba8261089c565b9050919050565b6108ca816108af565b82525050565b60006020820190506108e560008301846108c1565b92915050565b6000819050919050565b6108fe816108eb565b82525050565b600060208201905061091960008301846108f5565b92915050565b600080fd5b61092d816108eb565b811461093857600080fd5b50565b60008135905061094a81610924565b92915050565b6000602082840312156109665761096561091f565b5b60006109748482850161093b565b91505092915050565b600073ffffffffffffffffffffffffffffffffffffffff82169050919050565b60006109a88261097d565b9050919050565b6109b88161099d565b82525050565b60006020820190506109d360008301846109af565b92915050565b60006109e48261097d565b9050919050565b6109f4816109d9565b82525050565b6000602082019050610a0f60008301846109eb565b92915050565b60008060408385031215610a2c57610a2b61091f565b5b6000610a3a8582860161093b565b9250506020610a4b8582860161093b565b9150509250929050565b600082825260208201905092915050565b7f43757272656e7420737461746520646f6573206e6f7420616c6c6f772074686960008201527f7300000000000000000000000000000000000000000000000000000000000000602082015250565b6000610ac2602183610a55565b9150610acd82610a66565b604082019050919050565b60006020820190508181036000830152610af181610ab5565b9050919050565b7f43616e206f6e6c79206265742065786163746c7920746865206d6f6e65790000600082015250565b6000610b2e601e83610a55565b9150610b3982610af8565b602082019050919050565b60006020820190508181036000830152610b5d81610b21565b9050919050565b7f4e487b7100000000000000000000000000000000000000000000000000000000600052603260045260246000fd5b7f4e487b7100000000000000000000000000000000000000000000000000000000600052601160045260246000fd5b6000610bcd826108eb565b9150610bd8836108eb565b9250828203905081811115610bf057610bef610b93565b5b92915050565b6000610c01826108eb565b9150610c0c836108eb565b9250828202610c1a816108eb565b91508282048414831517610c3157610c30610b93565b5b5092915050565b7f4e487b7100000000000000000000000000000000000000000000000000000000600052601260045260246000fd5b6000610c72826108eb565b9150610c7d836108eb565b925082610c8d57610c8c610c38565b5b828204905092915050565b7f4f6e6c792061646d696e00000000000000000000000000000000000000000000600082015250565b6000610cce600a83610a55565b9150610cd982610c98565b602082019050919050565b60006020820190508181036000830152610cfd81610cc1565b9050919050565b6000610d0f826108eb565b91507fffffffffffffffffffffffffffffffffffffffffffffffffffffffffffffffff8203610d4157610d40610b93565b5b600182019050919050565b6000819050919050565b610d67610d62826108eb565b610d4c565b82525050565b6000610d798285610d56565b602082019150610d898284610d56565b6020820191508190509392505050565b6000610da4826108eb565b9150610daf836108eb565b925082610dbf57610dbe610c38565b5b82820690509291505056fea26469706673582212209dc64dad1b927de1f91f7dd85bc02d8c6a82fa5f8d253ed1be2141c1282d07af64736f6c63430008110033",
  "linkReferences": {},
  "deployedLinkReferences": {}
}